:040000000C944F000D
:100004000C9400000C9400000C9400000C9400006C
:100014000C9400000C9400000C9400000C9400005C
:100024000C9400000C9400000C9400000C9400004C
:100034000C9400000C9400000C9400000C9400003C
:100044000C9400000C9400000C9400000C9400002C
:100054005374617274696E672E2E2E0054656D7030
:100064003D252E326620483D2530322E306625252A
:10007400000080C02D4E414E000001002D4E414E27
:1000840000494E4600000C006001540002006C015F
:100094007600010070017E000000F894EE27ECBBAE
:1000A400F1E0FBBFEBBFE5BF8DE0A2E0BB27ED9322
:1000B4008A95E9F780E094E0A0E6ED930197E9F7EB
:1000C400EAE8F0E085919591009761F0A591B591EA
:1000D40005901590BF01F00105900D920197E1F78D
:1000E400FB01F0CFEFE5EDBFE4E0EEBFC0E6D1E009
:1000F4000C947C00A897A0E10E943002A0E6B1E035
:100104000E941F023AD0FE01B496FA93EA93DE01EC
:100114009296EAD038D0E030A1F4FE01FA93EA9343
:10012400E0E6F0E0FA93EA930E94C7060E94C7064D
:1001340088E00E9484052C960E94FE01DE010E9444
:100144001F02A8EEB3E00E94E507DDCFFFCFAA931C
:10015400E881E03011F4C39801C0C39A0C945C02A6
:10016400E0E0B399E1E00895AA93E881E03011F466
:10017400BB9801C0BB9A0C945C02A0EDB7E00E944E
:10018400E50755240895E52D0895BA93AA93259774
:100194000E94CE06E0E0EC830E94460A55243E2FDE
:1001A4000E2F1E2F5520C1F4A0E0D1DFA1E0DCDF2B
:1001B400A2E3B0E00E94E507A1E0C9DFA0E0D4DF3C
:1001C40010E0CEDFE03041F00E94D4061D3318F079
:1001D400E4E05E2E01C0F5CF5520C1F410E0C0DF8D
:1001E400E03041F40E94D406153618F0E4E05E2EA7
:1001F40001C0F5CF10E0B4DFE03041F00E94D40636
:10020400153618F0E4E05E2E01C0F5CF5520D9F57F
:1002140000E00530C0F537E030309CF110E0A0DF9D
:10022400E03051F40E94D406173428F0E4E05E2E46
:100234003FEF05E001C0F3CF552009F58DE58A9520
:10024400F1F78EDFE03079F0E02FF0E0DE01149674
:10025400EA0FFB1FBF011080E32FA1E00E94A40955
:10026400E129DB01EC9310E07BDFE03041F00E94F8
:10027400D406153618F0E4E05E2E01C0F5CF3150F7
:10028400CBCF0F5FC6CF552051F5AC81BB27ED8195
:10029400F0E0AE0FBF1FEE81F0E0AE0FBF1FEF81A5
:1002A400F0E0EA0FFB1FAE2FE885EA1719F0E3E050
:1002B4005E2E15C000E0043090F4E02FA985BA85C5
:1002C400F0E0EA0FFB1F0F01E02FF0E0DE011496CF
:1002D400AE0FBF1FEC91D001EC930F5FECCF53DF57
:1002E4000E944D0A2B960895BA93AA9324970E94CC
:1002F400CE061A93DE01119648DF1E2F1030D9F571
:10030400EB81EA93AD813BD0AF81B8850E94150A99
:10031400E981EA93AB8133D0AD81BE810E94150A95
:10032400AF81B8850E940F0A772362F0DF01CB0109
:10033400E0E0F0E068E472E40E94780911F008F06B
:1003440001C002C0E2E016C00E94D906E0E0F0E07D
:1003540060EA71E40E94780960F00E94D906E0E046
:10036400F0E064EB72E40E94780911F008F001C037
:1003740002C0E1E05E2E07DF188129960895AA9352
:1003840024970E94CE06ED81FF27662777270E94D7
:100394005B080E94240A0E94E00626960895AA9308
:1003A400E8B3EF70AE2FE881E07FEA2BE8BB8DE085
:1003B4008A95F1F7C29A8DE08A95F1F7C2988DE09B
:1003C4008A95F1F777C0AA93A881E9DFE881E295DD
:1003D400E883A881E4DF85E88A95F1F76BC0AA93E6
:1003E400E881F0E0E459FE4FE081A981AE0FEBDF34
:1003F4004980788022960895A2E00E94E306ACE04A
:10040400E2DFA1E00E94E306E0E07E2E4E2E089596
:10041400AA93A881AA3011F0461448F0E0E0EA93C8
:100424007394A72DDCDFA881AA3009F443C0439458
:10043400C09AA881C8DFC0983DC0BA93AA931A9302
:10044400A981BA81ED91A983BA831E2FE03019F0F6
:10045400A12FDEDFF5CF188123960895AA93E7B381
:10046400E06FE7BBBA9AB89AB99AC298C098C19893
:100474006880E881E058E0936E01E881E054E093FD
:100484006F01A4E1B0E00E94E5070E94E9060E9422
:10049400E9060E94E906A0E282DF88EC90E0019779
:1004A400F1F7A8E290DFA4E08EDFA5E88CDFA6E0F8
:1004B4008ADFA2DF21960895BA93AA931A930A9326
:1004C400AA81BB8112960E940B0A309729F1AA8156
:1004D400BB8114960E940B0A8F01309761F00230A1
:1004E400E0E01E0780F0F80131978F01AA81BB81FB
:1004F4001496ED93FC93AA81BB8112960E94F10697
:100504003197AC81A083AA81BB810E940B0AFF238F
:1005140012F00E94F10606C0AA81BB81EFEFFFEF43
:10052400ED93FC9319810881259608950E94F7069E
:10053400E0E8EA83EFE3EB830E94460AEE85FF8559
:10054400EF3FAFEFFA0749F4E885F985FA93EA93A8
:10055400A8E7B0E00E94B805B7C0EF3FAFE7FA07DD
:1005640049F4E885F985FA93EA93A9E7B0E00E9493
:10057400B805AAC0AB85A73010F0E6E0EB871B8571
:10058400E12F1150E03019F00E94FE06F9CFEC85FE
:10059400FD856E857F850E94400A21F430E00E942B
:1005A400FE062DC03B850E940D0709F008F40BC020
:1005B4000E94FE060E940D0728F00E9418070E9460
:1005C4001D07F8CF0DC00E940D0740F40E941807C4
:1005D4000E9429070E9430073150F5CF0E94FE0681
:1005E400EC85FD856E857F850E9435070E94300766
:1005F4000E940D0720F00E9418070E941D0710E0BA
:10060400EB85E117A8F1AC81BD818E819F810E94A9
:100614003C070E943507DF01CB010E940F06EC83E3
:10062400FD836E837F830E9418070E9433090E9412
:1006340022080E2F0E9443070E944A07FF276627BD
:1006440077270E945B08AC81BD818E819F810E94C7
:10065400E5080E9418070E944F070E943007E12F07
:100664001F5FE03069F60E944307EEE2EC93C8CFC7
:100674000E9454073197AA85A08330302CF4319519
:10068400A885B985EDE203C0A885B985EBE2EC93B2
:100694000E9454070E9454073197BF01A32FEAE038
:1006A4000E94C509E05DDB01EC930E945407319779
:1006B400BF01A32FEAE00E94EF09E05DDB01EC93A8
:1006C400A885B985E0E0EC930E944D0A60960895F0
:1006D400BA93AA93EF9761970E94440A10E0FE012F
:1006E400E85AFF4F0190F081E02DE887F987FE0179
:1006F400EA5AFF4F0190F081E02DEE83FF83AE8133
:10070400BF81E0E0F0E0ED93FC93DE01A45ABF4F1B
:100714000E94F1063197E4912E2FE03009F4E9C1EB
:10072400E12FE03039F4253211F411E002C00E94C7
:100734005A07DEC1E130C1F4253219F40E945A0788
:10074400D6C112E0E0E0ED8B00E02D3211F401E0BF
:10075400CFC12B3219F4EBE2ED8BCAC1203219F46C
:10076400E0E2ED8BC5C102C0E23039F450E013E0A1
:10077400203311F40068BCC102C0E33091F420338B
:1007840010F02A3308F007C0AAE05A9F502DE22F38
:10079400E0535E0FADC140E02E3211F414E0A8C165
:1007A4000FC0E43099F4203310F02A3308F008C065
:1007B4000062AAE04A9F402DE22FE0534E0F98C1F9
:1007C4002C3619F4026015E093C103C0E53009F03A
:1007D4008FC1E22FE33659F40E9461070E94680733
:1007E4000E946107A481AA930E946F0780C1E53427
:1007F40011F0E53609F403C0E63609F048C0FE01FD
:100804007696EE87FF870E9475070E940F0A0E9462
:100814007C070E948107AD85AA2332F0AD89AB32F3
:1008240059F0A03281F017C00E9483070E94EF079D
:100834000E947C07EDE2ED8B07FF05C0ED89EA938A
:100844000E946F0708C0EE85FF853196EE87FF870B
:100854003197AD89A08305FF46E0263651F40E9406
:1008640083070E94290A4A93AB89BC890E94260601
:1008740009C00E9483070E94290A4A932A93AC89DB
:10088400BD8954DEFE0176960E9488071EC0E337B8
:1008940039F40E9481070E9490070E9488070EC0C5
:1008A400E037C1F40E9481070E949007EE87FF871A
:1008B400AE85BF850E94D1051E2F08600F7740309A
:1008C40011F0411708F001C0142F40E0E0E0EC8B78
:1008D40030E06DC0E43611F0E93611F4046002C072
:1008E400E537A1F4EAE0EC8B01FF08C0E0E0FAECA4
:1008F4006AE97BE30E9495071AE022C0E0E1F7E28F
:1009040060E070E00E94950715E01AC0E83511F424
:10091400086003C0E83709F0EAC0E0E1EC8B01FFAE
:1009240008C0E0E0F0E060E070E10E94950718E0A4
:1009340007C0E0E0F0E160E070E00E94950714E099
:10094400403011F00F7701C041E001FF08C00E9460
:1009540081070E94750714960E940F0A0FC002FFB8
:1009640007C00E9481070E9490070E94B20906C036
:100974000E9481070E94900766277727EA87FB87F2
:100984006C877D8702FF12C0AD85AA2342F40E94C2
:1009940083070E949C090E947C07EDE2ED8BED89A0
:1009A400E03019F01F5F4F5F01C00B7F342F00FD53
:1009B40014C0151710F4351708F00FC007FF08C04E
:1009C40002FF04C00B7F2D89115001C020E301C038
:1009D40020E20E945A075150ECCF141790F40061A2
:1009E40002FF06C00E949A0709F05150115041506D
:1009F400E0E3EA930E946F07503009F051504150F0
:100A0400ECCF312FEC89E030B9F43030A1F003FFA2
:100A140006C0EE85FF852591EE87FF8705C0AE856C
:100A2400BF852D91AE87BF870E945A07503009F0C9
:100A340051503150EACF51C00E94AC070E94CA09FC
:100A44002E2F2A3030F003FF02C0295C01C0295A3E
:100A540001C0205D04FD21C0213360F4A889B98957
:100A64008A899B89A130E0E0BE07E0E08E07E0E0E0
:100A74009E0709F40BC0431740F4531710F000FF0E
:100A840001C010C020E207FF08C020E3006102FF9C
:100A940004C00E949A0709F051500E945A0750302E
:100AA40009F0515031500E94AC070E94FB090E948A
:100AB4007C07EC89A889B9898A899B89FF276627DD
:100AC40077270E94CA090E949507E889F9896A89EB
:100AD4007B890E94400A09F0AFCF00FF08C0503064
:100AE40031F05150E0E2EA930E946F07F8CF10E032
:100AF4000CCEAE81BF810E940B0A0E944B0AEF9676
:100B04006F960895FF92F82E26970E94460A0E9437
:100B1400B507309719F4EFEFFFEF23C0DE01169607
:100B24000E9498098D010E94B507EE83FF83E0E0DF
:100B3400E887E987DE011A960E9498090E940B0A49
:100B4400FA93EA931A930A93EEE5F2E0FA93EA939E
:100B5400DE011A96BDDD9F01AE81BF81E0E0EC931A
:100B6400F9010E944D0A2A96FF900895BA93AA9318
:100B7400E991F991A991B991CD0105900D920020C7
:100B8400E1F7FC010895BA93AA93A991B991EE27CC
:100B9400FF276D91662311F03196FBCF0895BA9328
:100BA400AA93AA27BB27E991F9910590002011F097
:100BB4001196FBCFFD0108950E942E0A7B816A8164
:100BC400F981E88177FB770F67FD7160972F9E5756
:100BD40081F078F0983190F4AA27BB2788270894ED
:100BE4008795B795A7959A95D1F7EA23FB236823B0
:100BF40005C0E8947727EE27FF2766276F77769559
:100C040008F4606877F9A991B99189919991EA17E3
:100C1400FB076807790797FB08950E942E0A0E9434
:100C24001F0A0E94DE050E94240A19F40E94E006AD
:100C340009C0E6F70E94E006A0E0B0E080E89FE388
:100C44000E948E0824960895D0D0E0E0EA83EFE372
:100C5400EB831A930A93EB85FC85EF3FAFEFFA071A
:100C640031F488D1A0E8B0E00E94B8058AC0EF3F13
:100C7400AFE7FA0731F47ED1A1E8B0E00E94B805ED
:100C840080C0AC85AA2352F4E985FA856B857C85FE
:100C94000E94EF0774D178D1EDE2EC93A885A730D8
:100CA40010F0E6E0E8871885E12F1150E03021F0DC
:100CB40072D1E0D075D1F8CF78D10E9495085FD178
:100CC40010E0E0E0F0E060E87FE36AD16ED10E94DA
:100CD400780968F060D1BBD063D11F5F173230F060
:100CE40049D1A5E8B0E00E94B8054BC0EFCF103061
:100CF40021F44AD1E0E3EC9320C0E12F1150E0301D
:100D0400E1F049D1B7D0AFD0DF01CB010E940F068B
:100D140047D14BD10E9433090E9422080E2F34D1AF
:100D2400B7D0F0E038D10E94B2090E945B080E945B
:100D3400E50844D1B2D023D1E0CFE885E030E9F032
:100D440023D1EEE2EC93E885E150E887EF5FA9F068
:100D540035D17DD014D1E985FA856B857C850E94D7
:100D640022080E2F11D194D0F0E028D10E94B209AC
:100D74000E945B0892D003D1E6CFAE81BF81E0E050
:100D8400EC93198108812D960895E8A5F9A56AA523
:100D94007BA50E94290A0895E0E0E883E983EA83B9
:100DA400EB83089585E08A95F1F71E5F0895AD8180
:100DB400BE810E940F0ADF01CB0108950E941A0A26
:100DC40008950E94E501A3E0B0E00C94E507A0E3D8
:100DD4000E94D10188EC90E00197F1F70895ED911C
:100DE400FD913196FE93EE930895BA93AA932497B6
:100DF400E0E0E883E9830895AC81BD818E819F8121
:100E0400E0E0F0E060E271E40E94E508EC83FD8339
:100E14006E837F830895EC81FD816E817F81AC8533
:100E2400BD858E859F850E9478090895AC85BD8512
:100E34008E859F850895EDECFCEC6CEC7DE30E94BF
:100E4400E508EC87FD876E877F873F5F0895E0E0C4
:100E5400F0E060E271E40E94E5080895EC87FD8704
:100E64006E877F870895A0E0B0E080E09FE30E9452
:100E740095080895EDECFCEC6CEC7DE30E94E5082C
:100E84000895A885B9851196A887B98711970895FB
:100E9400E02FE05DEC93E02F08950E94330A0E9456
:100EA4008E080895E885F9853196E887F9870895CD
:100EB4002A93AF81B885E985FA8509950895FE01DD
:100EC400E65AFF4F0190F081E02D08953497DE013A
:100ED400A65ABF4FED93FC930895AF81B885E98579
:100EE400FA8509950895DE01A65ABF4F0D90BC916D
:100EF400A02D0895EA87FB876C877D870895DFDF3F
:100F0400E5CFEA85FB856C857D850895EE87FF87AF
:100F1400AE85BF850E94C5051E2F0895E4DF149693
:100F24000E940B0A0895E88BF98B6A8B7B8B0895DA
:100F34000B7FED89EA93DE01A95ABF4F0D90BC9156
:100F4400A02DFE01E75AFF4F0190F081E02D099595
:100F540050300895E889F9896A897B89AA85BB8517
:100F64008C859D850895DE011C960E9498090E9437
:100F74000B0A0895EE81FF81FA93EA930895E987B5
:100F8400FA876B877C870895AE81BF811196AE8303
:100F9400BF8311970895AA81BB818C819D81089597
:100FA400EA83FB836C837D830895EA81FB816C81F2
:100FB4007D81A985BA858B859C850895A985BA8587
:100FC4008B859C850895109639F080ED97E0019704
:100FD400F1F7A8951197C9F70895309760407040CC
:100FE40009F070580895552342F4503811F4E0FF85
:100FF40004C03196691F791F6BF050E8572711F42C
:101004005F93CFC05F3F31F0660F000C5795679533
:10101400752F08955F9300200AF0CFC0C8C050E830
:10102400192E1522880F991F9527550F879550E87B
:10103400072E0522660F771F7527550F67950895AC
:10104400689401C0E8945F93F2DF703818F07F3F32
:1010540008F4A7C056E1571BAAF4519558300EF472
:10106400593030F0EFEFFFEF6FEF7FE777F91AC0F9
:1010740077275523B9F0EE0FFF1F661F771F5A9588
:10108400D1F710C07727583028F0EF2FF62F672FAD
:101094005850F9CF552331F076956795F795E79534
:1010A4005A95D1F700200AF445D15F9108956894C8
:1010B40001C0E894309760407040B1F0002426F0FD
:1010C400772312F4009436D1172E7EE1112032F0EA
:1010D4007A95EE0FFF1F661F111CF9CFEF2FF62F25
:1010E400612D5F938ADF5F9108954F93AF01FD01F6
:1010F400DA01AB01BC01CA01402D012C142E4F9121
:101104000895EA0FFB1F681F0895E095F095609518
:10111400EF5FFF4F6F4F08955F9381DF903871F158
:1011240050E8152604C05F937ADF903839F170389F
:1011340021F1572F591B2BF112F4D7DFFACF583175
:1011440018F0AA27BB278827583028F0AB2FB82FD0
:1011540088275850F9CF552329F08695B795A79538
:101164005A95D9F7502D512572F0CBDF38F4679595
:10117400F795E795739513F420C0B7DF3EDF5F91D1
:101184000895D8F7FBCFEA1BFB0B680B51F010F462
:101194000094BBDF662392F3EE0FFF1F661F7A9560
:1011A400CBF7EE27FF27662777275F910895EFEFA8
:1011B400FFEF6FE77FEF5F910895EFEFFFEF6FE7CA
:1011C4007FE75F9108955F932ADF703851F3903879
:1011D40041F301240894791F23F41CF300203AF30B
:1011E400ECCF0F921F932F933F934F9311272227F6
:1011F4009927689FA0018F9F302D410D591F6B9F28
:10120400300D411D591F8E9F27D0BF9F25D06A9F47
:1012140023D0BE9F1DD0AF9F1BD0AE9F110D291FA1
:10122400391F491F591FE32FF42F652F522F4F9158
:101234003F912F911F910F9066232AF0550FEE1FB7
:10124400FF1F661F02C073954BF2CDDE5F910895B8
:10125400100D211D391F02C0200D311D491F591FBA
:1012640008955F93DCDE703821F411200AF49FCFD7
:10127400A4CF903809F495CF01240894970B1BF45C
:10128400D4F30020F3CF792F1F932F933F934F93E1
:1012940011241127222733274427552790E2AE171C
:1012A400BF078607410730F0AE1BBF0B860B410B0F
:1012B400089401C08894551F221F331F111CAA1FB4
:1012C400BB1F881F441F9A9551F7F901612D4F9157
:1012D4003F912F911F91662332F0550FEE1FFF1F90
:1012E400661F7A9543F27FDE5F91089599239AF001
:1012F400772342F0971748F029F4AE17BF07860703
:1013040020F031F09894889408959894089408955E
:101314001894889408957723C2F7971798F3A9F738
:10132400EA17FB07680788F399F3ECCF0024AF0DA5
:10133400B01D0895F09560957095E195FF4F6F4F3E
:101344007F4F0895EE230E2EEA2F19F0EE0F0A9424
:10135400E9F70895FE2FFF0FFF0B6F2F7F2F0895DE
:101364006F2F660F660B762F0895002498E0AA0F5E
:10137400001C0E1A10F40E0E01C0A1609A95B9F764
:10138400EA2FA02D089539D0F0DF0EF4E1950895E9
:101394003F934F935F93002411244427552730E251
:1013A400AA0FBB1F881F991F001C111C441F551F27
:1013B4000E1A1F0A460B570B28F40E0E1F1E461F4B
:1013C400571F01C0A1603A9559F7FD01BC01D00136
:1013D400CA015F914F913F910895E894A7FF02C01D
:1013E400A1956894E7FDE195C0DFEA2F0EF4E1953D
:1013F4000895CEDFFD01BC010895E894E7FF02C023
:10140400E1956894A7FF04C0A19500F8039400FA3D
:101414000895ED91FC9111970895ED91FD916D91D1
:101424007C9113970895ED93FD936D937C930895A8
:10143400E881F9816A817B810895A881B9818A81D3
:101444009B810895E883F9836A837B8308957A9363
:101454006A93FA93EA9308959A938A93BA93AA9310
:101464000895182E862F612D192E972F712D1B2E5E
:10147400BF2FF12D1A2EAE2FE12D08953097604025
:10148400704008955A934A933A932A931A930A936D
:1014940008955D814C813B812A81198108810895D9
:00000001FF
